H202106160418_DEBITCARDTRANSACTION.TXT             00000000082021-06-16T04:18:18.411-04:00     2021-06-15T23:59:59.000-04:00     
0000000002417527048000000000241752703300097654112851Test                                                                                                                            User                                                                                                                            xXzXpZZvPzFhPbqWrthf     DENVER                  211530000214050479               5947  RETAIL12345678       0000000000000000000000000000000000000000VSN200000000000000000000000000000000000000000220023000               00 00000000000000000000                                   875A15C2BT2                                                                                                                                                                                                                                                       12345678                       0000000000                                 5947  US00000000012902NN
0000000002417528049000000000241752803200097654112851Test                                                                                                                            User                                                                                                                            VKwgWdyLBhqvgiiuyZvB     DENVER                  211530000224050479               5947  RETAIL12345678       0000000000000000000000000000000000000000VSN200000000000000000000000000000000000000000220023000               00 00000000000000000000                                   875A15C2BT2                                                                                                                                                                                                                                                       12345678                       0000000000                                 5947  US00000000012902NN
0000000002417532998000000000241753298200097654112851Test                                                                                                                            User                                                                                                                            QnmjVspSRfyCCXXPKrFw     DENVER                  211530000234050479               5947  RETAIL12345678       0000000000000000000000000000000000000000VSN200000000000000000000000000000000000000000220023000               00 00000000000000000000                                   875A15C2BT2                                                                                                                                                                                                                                                       12345678                       0000000000                                 5947  US00000000012902NN
0000000002417533533000000000241753352400097654112851Test                                                                                                                            User                                                                                                                            KwVwBFWatGaSgNccrggQ     DENVER                  211530000241050479               5947  RETAIL12345678       0000000000000000000000000000000000000000VSN200000000000000000000000000000000000000000220023000               00 00000000000000000000                                   875A15C2BT2                                                                                                                                                                                                                                                       12345678                       0000000000                                 5947  US00000000012902NN
0000000002417565031000000000241756502200097654112851Test                                                                                                                            User                                                                                                                            vBwIRKsbDVDkaleNfgUH     DENVER                  211530000250050479               5947  RETAIL12345678       0000000000000000000000000000000000000000VSN200000000000000000000000000000000000000000220023000               00 00000000000000000000                                   875A15C2BT2                                                                                                                                                                                                                                                       12345678                       0000000000                                 5947  US00000000012902NN
0000000002417565563000000000241756555400097654112851Test                                                                                                                            User                                                                                                                            oKaHNKXYTsbuvTeyyWBd     DENVER                  211530000260050479               5947  RETAIL12345678       0000000000000000000000000000000000000000VSN200000000000000000000000000000000000000000220023000               00 00000000000000000000                                   875A15C2BT2                                                                                                                                                                                                                                                       12345678                       0000000000                                 5947  US00000000012902NN
0000000002417738933000000000241773815200098273244714Test                                                                                                                            User                                                                                                                            Test Card Purchase Tran  DENVER                  211530000272050479               5947  RETAIL12345678       0000000000000000000000000000000000000000VSN200000000000000000000000000000000000000000220023000               00 00000000000000000000                                   875A15C2BT2                                                                                                                                                                                                                                                       12345678                       0000000000                                 5947  US00000000012902NN
0000000002417745802000000000241774453700098273244714Test                                                                                                                            User                                                                                                                            Test Card Purchase Tran  DENVER                  211530000285050479               5947  RETAIL12345678       0000000000000000000000000000000000000000VSN200000000000000000000000000000000000000000220023000               00 00000000000000000000                                   875A15C2BT2                                                                                                                                                                                                                                                       12345678                       0000000000                                 5947  US00000000012902NN