H202106301801_BULKACCOUNTUNLOCKRESPONSE.TXT        00000000072021-06-30T18:45:42.624-05:00     2021-06-30T18:45:42.000-05:00       ref-27349837498                                 000000000400000000070000000011
00002408930001421016UNLNA                                                                                                                                                                                                                                                             
00002522130001421056UNLNA                                                                                                                                                                                                                                                             
00002651030001421505UNLNA                                                                                                                                                                                                                                                             
00009917040000991710UNLNA                                                                                                                                                                                                                                                             
00015301250001444501NFDNA                                                                                                                                                                                                                                                             
00013381580001444502LCK61302 AccountId 1444502 has been locked by an Administrator or an automated process. Cannot unlock.                                                                                                                                                            
00014210740001421877LCK61302 AccountId 1421877 has been locked by an Administrator or an automated process. Cannot unlock.                                                                                                                                                            
00014295730001429594LCK61302 AccountId 1429594 has been locked by an Administrator or an automated process. Cannot unlock.                                                                                                                                                            
00014340700001434075LCK61302 AccountId 1434075 has been locked by an Administrator or an automated process. Cannot unlock.                                                                                                                                                            
00014444950001444499LCK61302 AccountId 1444499 has been locked by an Administrator or an automated process. Cannot unlock.                                                                                                                                                            
00002409180001010082LCK61303 AccountId 1010082 has been marked as suspected fraudulent. Cannot unlock.                                                         